{
  "_format": "hh-sol-artifact-1",
  "contractName": "ReportContract",
  "sourceName": "contracts/ReportContract.sol",
  "abi": [
    {
      "inputs": [],
      "stateMutability": "nonpayable",
      "type": "constructor"
    },
    {
      "anonymous": false,
      "inputs": [
        {
          "indexed": false,
          "internalType": "uint256",
          "name": "id",
          "type": "uint256"
        }
      ],
      "name": "ReportResolved",
      "type": "event"
    },
    {
      "anonymous": false,
      "inputs": [
        {
          "indexed": false,
          "internalType": "uint256",
          "name": "id",
          "type": "uint256"
        },
        {
          "indexed": false,
          "internalType": "string",
          "name": "description",
          "type": "string"
        },
        {
          "indexed": false,
          "internalType": "string",
          "name": "location",
          "type": "string"
        },
        {
          "indexed": false,
          "internalType": "string",
          "name": "imageHash",
          "type": "string"
        },
        {
          "indexed": false,
          "internalType": "address",
          "name": "reporter",
          "type": "address"
        }
      ],
      "name": "ReportSubmitted",
      "type": "event"
    },
    {
      "inputs": [],
      "name": "admin",
      "outputs": [
        {
          "internalType": "address",
          "name": "",
          "type": "address"
        }
      ],
      "stateMutability": "view",
      "type": "function"
    },
    {
      "inputs": [
        {
          "internalType": "uint256",
          "name": "_id",
          "type": "uint256"
        }
      ],
      "name": "getReport",
      "outputs": [
        {
          "internalType": "uint256",
          "name": "",
          "type": "uint256"
        },
        {
          "internalType": "string",
          "name": "",
          "type": "string"
        },
        {
          "internalType": "string",
          "name": "",
          "type": "string"
        },
        {
          "internalType": "string",
          "name": "",
          "type": "string"
        },
        {
          "internalType": "address",
          "name": "",
          "type": "address"
        },
        {
          "internalType": "bool",
          "name": "",
          "type": "bool"
        }
      ],
      "stateMutability": "view",
      "type": "function"
    },
    {
      "inputs": [],
      "name": "getReportCount",
      "outputs": [
        {
          "internalType": "uint256",
          "name": "",
          "type": "uint256"
        }
      ],
      "stateMutability": "view",
      "type": "function"
    },
    {
      "inputs": [],
      "name": "reportCount",
      "outputs": [
        {
          "internalType": "uint256",
          "name": "",
          "type": "uint256"
        }
      ],
      "stateMutability": "view",
      "type": "function"
    },
    {
      "inputs": [
        {
          "internalType": "uint256",
          "name": "",
          "type": "uint256"
        }
      ],
      "name": "reports",
      "outputs": [
        {
          "internalType": "uint256",
          "name": "id",
          "type": "uint256"
        },
        {
          "internalType": "string",
          "name": "description",
          "type": "string"
        },
        {
          "internalType": "string",
          "name": "location",
          "type": "string"
        },
        {
          "internalType": "string",
          "name": "imageHash",
          "type": "string"
        },
        {
          "internalType": "address",
          "name": "reporter",
          "type": "address"
        },
        {
          "internalType": "bool",
          "name": "isResolved",
          "type": "bool"
        }
      ],
      "stateMutability": "view",
      "type": "function"
    },
    {
      "inputs": [
        {
          "internalType": "uint256",
          "name": "_id",
          "type": "uint256"
        }
      ],
      "name": "resolveReport",
      "outputs": [],
      "stateMutability": "nonpayable",
      "type": "function"
    },
    {
      "inputs": [
        {
          "internalType": "string",
          "name": "_description",
          "type": "string"
        },
        {
          "internalType": "string",
          "name": "_location",
          "type": "string"
        },
        {
          "internalType": "string",
          "name": "_imageHash",
          "type": "string"
        }
      ],
      "name": "submitReport",
      "outputs": [],
      "stateMutability": "nonpayable",
      "type": "function"
    }
  ],
  "bytecode": "0x608060405260008055348015601357600080fd5b5033600260006101000a81548173ffffffffffffffffffffffffffffffffffffffff021916908373ffffffffffffffffffffffffffffffffffffffff1602179055506111c9806100646000396000f3fe608060405234801561001057600080fd5b506004361061007d5760003560e01c8063c942adf71161005b578063c942adf7146100f1578063cad9642b14610126578063f851a44014610144578063fb45a7c2146101625761007d565b8063185c6f84146100825780634e7f9b19146100a05780636dfa5e61146100d5575b600080fd5b61008a61017e565b604051610097919061091d565b60405180910390f35b6100ba60048036038101906100b59190610978565b610184565b6040516100cc96959493929190610a91565b60405180910390f35b6100ef60048036038101906100ea9190610978565b610415565b005b61010b60048036038101906101069190610978565b610565565b60405161011d96959493929190610a91565b60405180910390f35b61012e610766565b60405161013b919061091d565b60405180910390f35b61014c61076f565b6040516101599190610b07565b60405180910390f35b61017c60048036038101906101779190610c57565b610795565b005b60005481565b600060608060606000806000600160008981526020019081526020016000206040518060c0016040529081600082015481526020016001820180546101c890610d2d565b80601f01602080910402602001604051908101604052809291908181526020018280546101f490610d2d565b80156102415780601f1061021657610100808354040283529160200191610241565b820191906000526020600020905b81548152906001019060200180831161022457829003601f168201915b5050505050815260200160028201805461025a90610d2d565b80601f016020809104026020016040519081016040528092919081815260200182805461028690610d2d565b80156102d35780601f106102a8576101008083540402835291602001916102d3565b820191906000526020600020905b8154815290600101906020018083116102b657829003601f168201915b505050505081526020016003820180546102ec90610d2d565b80601f016020809104026020016040519081016040528092919081815260200182805461031890610d2d565b80156103655780601f1061033a57610100808354040283529160200191610365565b820191906000526020600020905b81548152906001019060200180831161034857829003601f168201915b505050505081526020016004820160009054906101000a900473ffffffffffffffffffffffffffffffffffffffff1673ffffffffffffffffffffffffffffffffffffffff1673ffffffffffffffffffffffffffffffffffffffff1681526020016004820160149054906101000a900460ff1615151515815250509050806000015181602001518260400151836060015184608001518560a001519650965096509650965096505091939550919395565b600260009054906101000a900473ffffffffffffffffffffffffffffffffffffffff1673ffffffffffffffffffffffffffffffffffffffff163373ffffffffffffffffffffffffffffffffffffffff16146104a5576040517f08c379a000000000000000000000000000000000000000000000000000000000815260040161049c90610daa565b60405180910390fd5b6000811180156104b757506000548111155b6104f6576040517f08c379a00000000000000000000000000000000000000000000000000000000081526004016104ed90610e16565b60405180910390fd5b600060016000838152602001908152602001600020905060018160040160146101000a81548160ff0219169083151502179055507fc04eccda8469afb534970e4a89187f6902fa3c1ee34cd2cb40d0a85c0ae130d882604051610559919061091d565b60405180910390a15050565b600160205280600052604060002060009150905080600001549080600101805461058e90610d2d565b80601f01602080910402602001604051908101604052809291908181526020018280546105ba90610d2d565b80156106075780601f106105dc57610100808354040283529160200191610607565b820191906000526020600020905b8154815290600101906020018083116105ea57829003601f168201915b50505050509080600201805461061c90610d2d565b80601f016020809104026020016040519081016040528092919081815260200182805461064890610d2d565b80156106955780601f1061066a57610100808354040283529160200191610695565b820191906000526020600020905b81548152906001019060200180831161067857829003601f168201915b5050505050908060030180546106aa90610d2d565b80601f01602080910402602001604051908101604052809291908181526020018280546106d690610d2d565b80156107235780601f106106f857610100808354040283529160200191610723565b820191906000526020600020905b81548152906001019060200180831161070657829003601f168201915b5050505050908060040160009054906101000a900473ffffffffffffffffffffffffffffffffffffffff16908060040160149054906101000a900460ff16905086565b60008054905090565b600260009054906101000a900473ffffffffffffffffffffffffffffffffffffffff1681565b6000808154809291906107a790610e65565b91905055506040518060c0016040528060005481526020018481526020018381526020018281526020013373ffffffffffffffffffffffffffffffffffffffff1681526020016000151581525060016000805481526020019081526020016000206000820151816000015560208201518160010190816108279190611059565b50604082015181600201908161083d9190611059565b5060608201518160030190816108539190611059565b5060808201518160040160006101000a81548173ffffffffffffffffffffffffffffffffffffffff021916908373ffffffffffffffffffffffffffffffffffffffff16021790555060a08201518160040160146101000a81548160ff0219169083151502179055509050507f061da1e83accc98ec6fef2a53aad6de9c109faa23573c3ab0398a1f7e612f4ce600054848484336040516108f795949392919061112b565b60405180910390a1505050565b6000819050919050565b61091781610904565b82525050565b6000602082019050610932600083018461090e565b92915050565b6000604051905090565b600080fd5b600080fd5b61095581610904565b811461096057600080fd5b50565b6000813590506109728161094c565b92915050565b60006020828403121561098e5761098d610942565b5b600061099c84828501610963565b91505092915050565b600081519050919050565b600082825260208201905092915050565b60005b838110156109df5780820151818401526020810190506109c4565b60008484015250505050565b6000601f19601f8301169050919050565b6000610a07826109a5565b610a1181856109b0565b9350610a218185602086016109c1565b610a2a816109eb565b840191505092915050565b600073ffffffffffffffffffffffffffffffffffffffff82169050919050565b6000610a6082610a35565b9050919050565b610a7081610a55565b82525050565b60008115159050919050565b610a8b81610a76565b82525050565b600060c082019050610aa6600083018961090e565b8181036020830152610ab881886109fc565b90508181036040830152610acc81876109fc565b90508181036060830152610ae081866109fc565b9050610aef6080830185610a67565b610afc60a0830184610a82565b979650505050505050565b6000602082019050610b1c6000830184610a67565b92915050565b600080fd5b600080fd5b7f4e487b7100000000000000000000000000000000000000000000000000000000600052604160045260246000fd5b610b64826109eb565b810181811067ffffffffffffffff82111715610b8357610b82610b2c565b5b80604052505050565b6000610b96610938565b9050610ba28282610b5b565b919050565b600067ffffffffffffffff821115610bc257610bc1610b2c565b5b610bcb826109eb565b9050602081019050919050565b82818337600083830152505050565b6000610bfa610bf584610ba7565b610b8c565b905082815260208101848484011115610c1657610c15610b27565b5b610c21848285610bd8565b509392505050565b600082601f830112610c3e57610c3d610b22565b5b8135610c4e848260208601610be7565b91505092915050565b600080600060608486031215610c7057610c6f610942565b5b600084013567ffffffffffffffff811115610c8e57610c8d610947565b5b610c9a86828701610c29565b935050602084013567ffffffffffffffff811115610cbb57610cba610947565b5b610cc786828701610c29565b925050604084013567ffffffffffffffff811115610ce857610ce7610947565b5b610cf486828701610c29565b9150509250925092565b7f4e487b7100000000000000000000000000000000000000000000000000000000600052602260045260246000fd5b60006002820490506001821680610d4557607f821691505b602082108103610d5857610d57610cfe565b5b50919050565b7f4f6e6c792061646d696e2063616e207265736f6c7665207265706f7274730000600082015250565b6000610d94601e836109b0565b9150610d9f82610d5e565b602082019050919050565b60006020820190508181036000830152610dc381610d87565b9050919050565b7f496e76616c6964207265706f72742049442e0000000000000000000000000000600082015250565b6000610e006012836109b0565b9150610e0b82610dca565b602082019050919050565b60006020820190508181036000830152610e2f81610df3565b9050919050565b7f4e487b7100000000000000000000000000000000000000000000000000000000600052601160045260246000fd5b6000610e7082610904565b91507fffffffffffffffffffffffffffffffffffffffffffffffffffffffffffffffff8203610ea257610ea1610e36565b5b600182019050919050565b60008190508160005260206000209050919050565b60006020601f8301049050919050565b600082821b905092915050565b600060088302610f0f7fffffffffffffffffffffffffffffffffffffffffffffffffffffffffffffffff82610ed2565b610f198683610ed2565b95508019841693508086168417925050509392505050565b6000819050919050565b6000610f56610f51610f4c84610904565b610f31565b610904565b9050919050565b6000819050919050565b610f7083610f3b565b610f84610f7c82610f5d565b848454610edf565b825550505050565b600090565b610f99610f8c565b610fa4818484610f67565b505050565b5b81811015610fc857610fbd600082610f91565b600181019050610faa565b5050565b601f82111561100d57610fde81610ead565b610fe784610ec2565b81016020851015610ff6578190505b61100a61100285610ec2565b830182610fa9565b50505b505050565b600082821c905092915050565b600061103060001984600802611012565b1980831691505092915050565b6000611049838361101f565b9150826002028217905092915050565b611062826109a5565b67ffffffffffffffff81111561107b5761107a610b2c565b5b6110858254610d2d565b611090828285610fcc565b600060209050601f8311600181146110c357600084156110b1578287015190505b6110bb858261103d565b865550611123565b601f1984166110d186610ead565b60005b828110156110f9578489015182556001820191506020850194506020810190506110d4565b868310156111165784890151611112601f89168261101f565b8355505b6001600288020188555050505b505050505050565b600060a082019050611140600083018861090e565b818103602083015261115281876109fc565b9050818103604083015261116681866109fc565b9050818103606083015261117a81856109fc565b90506111896080830184610a67565b969550505050505056fea2646970667358221220da0c8c0170a015211016c955f9599fb330c6f0a3cb40a09a92b27625cab1adb164736f6c634300081b0033",
  "linkReferences": {},
  "deployedLinkReferences": {}
}